N207712821 TEXAS A&M AGRILIFE EXT              27960   #0027960         7076499929010360612/23/201420141223A01/01/20222022010111/11/201620161111Unleaded RegularUUnlockedYYREPORTM-Su2505001002505035000000DENY
N207712821 TEXAS A&M AGRILIFE EXT              29359   #0029359         7076499929010714301/26/201620160126A01/01/20212021010110/07/201620161007Unleaded RegularUUnlockedYYREPORTM-Su18050060 1001935000000DENY
N207737880 H C PROTECTIVE SERVICES             11359   #0011359         7076499929006647308/23/200720070823A01/01/20222022010110/31/201620161031Any Diesel      UUnlockedYYREPORTM-Su2003501001005035000000DENY
N207737880 H C PROTECTIVE SERVICES             17872   #0017872         7076499929005179009/25/200620060925A01/01/20222022010110/26/201620161026Unleaded RegularUUnlockedYYREPORTM-Su3503501001005035000000DENY
N207737880 H C PROTECTIVE SERVICES             19474   #0019474         7076499929005179209/25/200620060925A01/01/20222022010111/26/201620161126Unleaded RegularUUnlockedYYREPORTM-Su3503501001005035000000DENY
N207737880 H C PROTECTIVE SERVICES             19954   #0019954         7076499929006694809/05/200720070905A01/01/20222022010110/30/201220121030Unleaded RegularUUnlockedYYREPORTM-Su2003501001005035000000DENY
N207737880 H C PROTECTIVE SERVICES             21769   #0021769         7076499929007452710/21/200820081021A01/01/20222022010111/10/201620161110Unleaded RegularUUnlockedYYREPORTM-Su2002001001005035000000DENY
N207737880 H C PROTECTIVE SERVICES             22000   #0022000         7076499929007558101/14/200920090114A01/01/20222022010111/11/201620161111Unleaded RegularUUnlockedYYREPORTM-Su2503501001206035000000DENY
N207737880 H C PROTECTIVE SERVICES             22001   #0022001         7076499929007557901/14/200920090114A01/01/20212021010111/08/201620161108Unleaded RegularUUnlockedYYREPORTM-Su2503501001206035000000DENY
N207737880 H C PROTECTIVE SERVICES             24591   #0024591         7076499929010754903/22/201620160322A01/01/20212021010111/21/201620161121Unleaded RegularUUnlockedYYREPORTM-Su2505001002505035000000DENY
N207737880 H C PROTECTIVE SERVICES             25124   #0025124         7076499929009685602/27/201320130227A01/01/20222022010111/09/201620161109Unleaded RegularUUnlockedYYREPORTM-Su2505001002505035000000DENY
N207737880 H C PROTECTIVE SERVICES             26047   #0026047         7076499929010027401/04/201420140104A01/01/20222022010111/23/201620161123Unleaded RegularUUnlockedYYREPORTM-Su2505001002505035000000DENY
N207737880 H C PROTECTIVE SERVICES             26049   #0026049         7076499929010027501/04/201420140104A01/01/20222022010111/22/201620161122Unleaded RegularUUnlockedYYREPORTM-Su2505001002505035000000DENY
N207737880 H C PROTECTIVE SERVICES             26050   #0026050         7076499929010027601/04/201420140104A01/01/20222022010111/23/201620161123Unleaded RegularUUnlockedYYREPORTM-Su2505001002505035000000DENY
N207738885 H C CHILDREN'S ASSESSMENT           15887   #0015887         7076499929005180009/25/200620060925A01/01/20222022010111/01/201620161101Unleaded RegularUUnlockedYYREPORTM-Su3503501001005035000000DENY
N207746208 HARRIS COUNTY ENGINEERS             18580   #0018580         7076499929005732409/27/200620060927A01/01/20222022010111/16/201620161116Unleaded RegularUUnlockedYYREPORTM-Su3503501001005035000000DENY
N207746208 HARRIS COUNTY ENGINEERS             19329   #0019329         7076499929010992310/26/201620161026A01/01/20222022010110/26/201620161026Unleaded RegularUUnlockedYYDENY  M-Su2003501001005035000000DENY
N207746208 HARRIS COUNTY ENGINEERS             19734   #0019734         7076499929006312101/10/200720070110A01/01/20222022010104/25/201620160425Unleaded RegularUUnlockedYYREPORTM-Su2003501001005035000000DENY
N207746208 HARRIS COUNTY ENGINEERS             19739   #0019739         7076499929006390003/08/200720070308A01/01/20222022010111/21/201620161121Unleaded RegularUUnlockedYYREPORTM-Su2003501001005035000000DENY
N207746208 HARRIS COUNTY ENGINEERS             19746   #0019746         7076499929010753203/21/201620160321A01/01/20212021010104/12/201620160412Unleaded RegularUUnlockedYYREPORTM-Su2505001002505035000000DENY
N207746208 HARRIS COUNTY ENGINEERS             19749   #0019749         7076499929010992510/26/201620161026A01/01/20222022010110/26/201620161026Unleaded RegularUUnlockedYYDENY  M-Su2003501001005035000000DENY
N207746208 HARRIS COUNTY ENGINEERS             19758   #0019758         7076499929006462004/18/200720070418A01/01/20172017010104/18/200720070418Unleaded RegularUUnlockedYYREPORTM-Su2003501001005035000000DENY
N207746208 HARRIS COUNTY ENGINEERS             19761   #0019761         7076499929006503905/15/200720070515A01/01/20172017010105/15/200720070515Unleaded RegularUUnlockedYYREPORTM-Su2002001001005035000000DENY
N207746208 HARRIS COUNTY ENGINEERS             19763   #0019763         7076499929006389903/08/200720070308A01/01/20222022010105/03/201620160503Unleaded RegularUUnlockedYYREPORTM-Su2003501001005035000000DENY
N207746208 HARRIS COUNTY ENGINEERS             19764   #0019764         7076499929006381203/02/200720070302A01/01/20222022010108/25/201620160825Unleaded RegularUUnlockedYYREPORTM-Su2003501001005035000000DENY
N207746208 HARRIS COUNTY ENGINEERS             19783   #0019783FORKLIFT 7076499929010988510/24/201620161024A01/01/20222022010110/26/201620161026Unleaded RegularUUnlockedYYREPORTM-Su15025060 1002035000000DENY
N207746208 HARRIS COUNTY ENGINEERS             19783   #0019783         7076499929010992410/26/201620161026A01/01/20222022010101/10/200720071001Unleaded RegularUUnlockedYYDENY  M-Su2003501001005035000000DENY
N207746208 HARRIS COUNTY ENGINEERS             20867   #0020867         7076499929006945701/25/200820080125A01/01/20222022010108/11/201520150811Unleaded RegularUUnlockedYYREPORTM-Su2003501001005035000000DENY
N207746208 HARRIS COUNTY ENGINEERS             21722   #0021722         7076499929008712005/25/201120110525A01/01/20222022010111/28/201620161128Unleaded RegularUUnlockedYYREPORTM-Su2505001002505035000000DENY
N207746208 HARRIS COUNTY ENGINEERS             21723   #0021723         7076499929008712105/25/201120110525A01/01/20222022010111/17/201620161117Unleaded RegularUUnlockedYYREPORTM-Su2505001002505035000000DENY
N207746208 HARRIS COUNTY ENGINEERS             21963   #0021963         7076499929007559201/14/200920090114A01/01/20222022010111/16/201620161116Unleaded RegularUUnlockedYYREPORTM-Su2505001002505035000000DENY
N207746208 HARRIS COUNTY ENGINEERS             21966   #0021966         7076499929007559301/14/200920090114A01/01/20222022010105/02/201620160502Unleaded RegularUUnlockedYYREPORTM-Su2505001002505035000000DENY
N207746208 HARRIS COUNTY ENGINEERS             21967   #0021967         7076499929007559601/14/200920090114A01/01/20212021010105/26/201620160526Unleaded RegularUUnlockedYYREPORTM-Su2505001002505035000000DENY
N207746208 HARRIS COUNTY ENGINEERS             21991   #0021991         7076499929007560201/14/200920090114A01/01/20222022010105/11/201620160511Unleaded RegularUUnlockedYYREPORTM-Su2505001002505035000000DENY
N207746208 HARRIS COUNTY ENGINEERS             21992   #0021992         7076499929007560001/14/200920090114A01/01/20222022010105/03/201620160503Unleaded RegularUUnlockedYYREPORTM-Su2505001002505035000000DENY
N207746208 HARRIS COUNTY ENGINEERS             21993   #0021993         7076499929007559701/14/200920090114A01/01/20222022010111/15/201620161115Unleaded RegularUUnlockedYYREPORTM-Su2505001002505035000000DENY
N207746208 HARRIS COUNTY ENGINEERS             21995   #0021995         7076499929007559901/14/200920090114A01/01/20222022010111/04/201620161104Unleaded RegularUUnlockedYYREPORTM-Su2505001002505035000000DENY
N207746208 HARRIS COUNTY ENGINEERS             23623   #0023623         7076499929010592609/03/201520150903A01/01/20222022010111/28/201620161128Unleaded RegularUUnlockedYYREPORTM-Su2505001502505035000000DENY
N207746208 HARRIS COUNTY ENGINEERS             24008   #0024008         7076499929008546101/23/201120110123A01/01/20222022010111/16/201620161116Unleaded RegularUUnlockedYYREPORTM-Su2505001002505035000000DENY
N207746208 HARRIS COUNTY ENGINEERS             24201   #0024201         7076499929008586602/17/201120110217A01/01/20212021010110/31/201620161031Unleaded RegularUUnlockedYYREPORTM-Su2505001002505035000000DENY
N207746208 HARRIS COUNTY ENGINEERS             24355   #0024355         7076499929008997601/14/201220120114A01/01/20222022010111/21/201620161121Unleaded RegularUUnlockedYYREPORTM-Su2505001002505035000000DENY
N207746208 HARRIS COUNTY ENGINEERS             25005   #0025005         7076499929009563011/29/201220121129A01/01/20222022010111/17/201620161117Unleaded RegularUUnlockedYYREPORTM-Su2505001002505035000000DENY
N207746208 HARRIS COUNTY ENGINEERS             25955   #0025955         7076499929010003411/21/201320131121A01/01/20222022010108/29/201620160829Unleaded RegularUUnlockedYYREPORTM-Su3503501001002135000000DENY
N207746208 HARRIS COUNTY ENGINEERS             25956   #0025956         7076499929010003511/21/201320131121A01/01/20222022010111/21/201620161121Unleaded RegularUUnlockedYYREPORTM-Su3503501001002135000000DENY
N207746208 HARRIS COUNTY ENGINEERS             25957   #0025957         7076499929010003911/21/201320131121A01/01/20222022010106/27/201620160627Unleaded RegularUUnlockedYYREPORTM-Su3503501001002135000000DENY
N207746208 HARRIS COUNTY ENGINEERS             25959   #0025959         7076499929010004111/21/201320131121A01/01/20222022010111/23/201620161123Unleaded RegularUUnlockedYYREPORTM-Su3503501001002135000000DENY
N207746208 HARRIS COUNTY ENGINEERS             25960   #0025960         7076499929010003611/21/201320131121A01/01/20222022010111/15/201620161115Unleaded RegularUUnlockedYYREPORTM-Su25050090 1503035000000DENY
N207746208 HARRIS COUNTY ENGINEERS             25962   #0025962         7076499929010003811/21/201320131121A01/01/20222022010111/10/201620161110Unleaded RegularUUnlockedYYREPORTM-Su3503501001002135000000DENY
N207746208 HARRIS COUNTY ENGINEERS             25963   #0025963         7076499929010004011/21/201320131121A01/01/20222022010111/17/201620161117Unleaded RegularUUnlockedYYREPORTM-Su3503501001002135000000DENY
N207746208 HARRIS COUNTY ENGINEERS             25964   #0025964         7076499929010004211/21/201320131121A01/01/20222022010111/21/201620161121Unleaded RegularUUnlockedYYREPORTM-Su3503501001002135000000DENY
N207746208 HARRIS COUNTY ENGINEERS             25965   #0025965         7076499929010004311/21/201320131121A01/01/20222022010111/09/201620161109Unleaded RegularUUnlockedYYREPORTM-Su3503501001002135000000DENY
N207746208 HARRIS COUNTY ENGINEERS             25966   #0025966         7076499929010004411/21/201320131121A01/01/20222022010111/28/201620161128Unleaded RegularUUnlockedYYREPORTM-Su3503501001002135000000DENY
N207746208 HARRIS COUNTY ENGINEERS             27519   #0027519         7076499929010311610/16/201420141016A01/01/20222022010111/23/201620161123Unleaded RegularUUnlockedYYREPORTM-Su2505001002505035000000DENY
N207746208 HARRIS COUNTY ENGINEERS             28008   #0028008         7076499929010369601/07/201520150107A01/01/20222022010101/21/201520150121Unleaded RegularUUnlockedYYREPORTM-Su2505001002505035000000DENY
N207746208 HARRIS COUNTY ENGINEERS             28009   #0028009         7076499929010382701/20/201520150120A01/01/20222022010111/17/201620161117Unleaded RegularUUnlockedYYREPORTM-Su2505001002505035000000DENY
N207746208 HARRIS COUNTY ENGINEERS             28010   #0028010         7076499929010384201/21/201520150121A01/01/20222022010110/27/201620161027Unleaded RegularUUnlockedYYREPORTM-Su2505001002505035000000DENY
N207746208 HARRIS COUNTY ENGINEERS             28095   #0028095         7076499929010740603/07/201620160307A01/01/20212021010111/22/201620161122Unleaded RegularUUnlockedYYREPORTM-Su2505001002505035000000DENY
N207746208 HARRIS COUNTY ENGINEERS             28096   #0028096         7076499929010386001/22/201520150122A01/01/20222022010110/20/201620161020Unleaded RegularUUnlockedYYREPORTM-Su2505001002505035000000DENY
N207746208 HARRIS COUNTY ENGINEERS             28097   #0028097         7076499929010386101/22/201520150122A01/01/20222022010111/18/201620161118Unleaded RegularUUnlockedYYREPORTM-Su2505001002505035000000DENY
N207746208 HARRIS COUNTY ENGINEERS             28098   #0028098         7076499929010386201/22/201520150122A01/01/20222022010110/26/201620161026Unleaded RegularUUnlockedYYREPORTM-Su2505001002505035000000DENY
N207746208 HARRIS COUNTY ENGINEERS             28099   #0028099         7076499929010386301/22/201520150122A01/01/20222022010108/26/201520150826Unleaded RegularUUnlockedYYREPORTM-Su2505001002505035000000DENY
N207746208 HARRIS COUNTY ENGINEERS             28100   #0028100         7076499929010386401/22/201520150122A01/01/20222022010111/14/201620161114Unleaded RegularUUnlockedYYREPORTM-Su2505001002505035000000DENY
N207746208 HARRIS COUNTY ENGINEERS             28156   #0028156         7076499929010417402/24/201520150224A01/01/20222022010111/21/201620161121Unleaded RegularUUnlockedYYREPORTM-Su2505001002505035000000DENY
N207746208 HARRIS COUNTY ENGINEERS             28157   #0028157         7076499929010417502/24/201520150224A01/01/20222022010111/22/201620161122Unleaded RegularUUnlockedYYREPORTM-Su2505001002505035000000DENY
N207746208 HARRIS COUNTY ENGINEERS             28158   #0028158         7076499929010417602/24/201520150224A01/01/20222022010111/23/201620161123Unleaded RegularUUnlockedYYREPORTM-Su2505001002505035000000DENY
N207746208 HARRIS COUNTY ENGINEERS             28159   #0028159         7076499929010417702/24/201520150224A01/01/20222022010111/21/201620161121Unleaded RegularUUnlockedYYREPORTM-Su2505001002505035000000DENY
N207746208 HARRIS COUNTY ENGINEERS             28161   #0028161         7076499929010423002/24/201520150224A01/01/20212021010110/27/201620161027Unleaded RegularUUnlockedYYREPORTM-Su2505001002505035000000DENY
N207746208 HARRIS COUNTY ENGINEERS             28162   #0028162         7076499929010423102/24/201520150224A01/01/20222022010111/16/201620161116Unleaded RegularUUnlockedYYREPORTM-Su2505001002505035000000DENY
N207746208 HARRIS COUNTY ENGINEERS             28163   #0028163         7076499929010419702/24/201520150224A01/01/20222022010111/17/201620161117Unleaded RegularUUnlockedYYREPORTM-Su2505001002505035000000DENY
N207746208 HARRIS COUNTY ENGINEERS             28164   #0028164         7076499929010419802/24/201520150224A01/01/20222022010110/21/201620161021Unleaded RegularUUnlockedYYREPORTM-Su2505001002505035000000DENY
N207746208 HARRIS COUNTY ENGINEERS             28165   #0028165         7076499929010419902/24/201520150224A01/01/20222022010111/22/201620161122Unleaded RegularUUnlockedYYREPORTM-Su2505001002505035000000DENY
N207746208 HARRIS COUNTY ENGINEERS             28166   #0028166         7076499929010420002/24/201520150224A01/01/20222022010111/22/201620161122Unleaded RegularUUnlockedYYREPORTM-Su2505001002505035000000DENY
N207746208 HARRIS COUNTY ENGINEERS             28167   #0028167         7076499929010420102/24/201520150224A01/01/20222022010111/17/201620161117Unleaded RegularUUnlockedYYREPORTM-Su2505001002505035000000DENY
N207746208 HARRIS COUNTY ENGINEERS             28168   #0028168         7076499929010420202/24/201520150224A01/01/20222022010111/23/201620161123Unleaded RegularUUnlockedYYREPORTM-Su2505001002505035000000DENY
N207746208 HARRIS COUNTY ENGINEERS             28169   #0028169         7076499929010420302/24/201520150224A01/01/20222022010111/21/201620161121Unleaded RegularUUnlockedYYREPORTM-Su2505001002505035000000DENY
N207746208 HARRIS COUNTY ENGINEERS             28501   #0028501         7076499929010538507/09/201520150709A01/01/20222022010111/22/201620161122Unleaded RegularUUnlockedYYREPORTM-Su18952563 1052135000000DENY
N207746208 HARRIS COUNTY ENGINEERS             28904   #0028904         7076499929010638711/04/201520151104A01/01/20222022010111/17/201620161117Unleaded RegularUUnlockedYYREPORTM-Su18050060 1002135000000DENY
N207746208 HARRIS COUNTY ENGINEERS             29260   #0029260         7076499929010665912/09/201520151209A01/01/20222022010111/15/201620161115Unleaded RegularUUnlockedYYREPORTM-Su22550075 1252635000000DENY
N207746208 HARRIS COUNTY ENGINEERS             29262   #0029262         7076499929010666012/09/201520151209A01/01/20222022010111/21/201620161121Unleaded RegularUUnlockedYYREPORTM-Su22550075 1252635000000DENY
N207746208 HARRIS COUNTY ENGINEERS             29263   #0029263         7076499929010666112/09/201520151209A01/01/20222022010111/22/201620161122Unleaded RegularUUnlockedYYREPORTM-Su22550075 1252635000000DENY
N207746208 HARRIS COUNTY ENGINEERS             29264   #0029264         7076499929010666212/09/201520151209A01/01/20222022010111/17/201620161117Unleaded RegularUUnlockedYYREPORTM-Su22550075 1252635000000DENY
N207746208 HARRIS COUNTY ENGINEERS             29265   #0029265         7076499929010703401/15/201620160115A01/01/20212021010111/21/201620161121Unleaded RegularUUnlockedYYREPORTM-Su22550075 1252535000000DENY
N207746208 HARRIS COUNTY ENGINEERS             29460   #0029460         7076499929010788004/21/201620160421A01/01/20212021010111/17/201620161117Unleaded RegularUUnlockedYYREPORTM-Su18050060 1002135000000DENY
N207746208 HARRIS COUNTY ENGINEERS             29583   #0029583         7076499929010777804/07/201620160407A01/01/20212021010111/23/201620161123Unleaded RegularUUnlockedYYREPORTM-Su18050060 1002135000000DENY
N207746208 HARRIS COUNTY ENGINEERS             29584   #0029584         7076499929010777904/07/201620160407A01/01/20212021010111/21/201620161121Unleaded RegularUUnlockedYYREPORTM-Su18050060 1002135000000DENY
N207746208 HARRIS COUNTY ENGINEERS             29585   #0029585         7076499929010778004/07/201620160407A01/01/20212021010111/22/201620161122Unleaded RegularUUnlockedYYREPORTM-Su18050060 1002135000000DENY
N207746208 HARRIS COUNTY ENGINEERS             29586   #0029586         7076499929010778104/07/201620160407A01/01/20212021010111/23/201620161123Unleaded RegularUUnlockedYYREPORTM-Su18050060 1002135000000DENY
N207746208 HARRIS COUNTY ENGINEERS             29587   #0029587         7076499929010778204/07/201620160407A01/01/20212021010111/15/201620161115Unleaded RegularUUnlockedYYREPORTM-Su18050060 1002135000000DENY
N207746208 HARRIS COUNTY ENGINEERS             29588   #0029588         7076499929010778304/07/201620160407A01/01/20212021010111/18/201620161118Unleaded RegularUUnlockedYYREPORTM-Su18050060 1002135000000DENY
N207746208 HARRIS COUNTY ENGINEERS             29589   #0029589         7076499929010778404/07/201620160407A01/01/20212021010111/22/201620161122Unleaded RegularUUnlockedYYREPORTM-Su18050060 1002135000000DENY
N207746208 HARRIS COUNTY ENGINEERS             29590   #0029590         7076499929010778504/07/201620160407A01/01/202120210101                  Unleaded RegularUUnlockedYYREPORTM-Su18050060 1002135000000DENY
N207746208 HARRIS COUNTY ENGINEERS             29591   #0029591         7076499929010778604/07/201620160407A01/01/20212021010111/09/201620161109Unleaded RegularUUnlockedYYREPORTM-Su18050060 1002135000000DENY
N207746208 HARRIS COUNTY ENGINEERS             29592   #0029592         7076499929010778704/07/201620160407A01/01/20212021010111/27/201620161127Unleaded RegularUUnlockedYYREPORTM-Su18050060 1002135000000DENY
N207746208 HARRIS COUNTY ENGINEERS             29593   #0029593         7076499929010778804/07/201620160407A01/01/20212021010111/21/201620161121Unleaded RegularUUnlockedYYREPORTM-Su18050060 1002135000000DENY
N207746208 HARRIS COUNTY ENGINEERS             29594   #0029594         7076499929010778904/07/201620160407A01/01/20212021010108/26/201620160826Unleaded RegularUUnlockedYYREPORTM-Su18050060 1002135000000DENY
N207746208 HARRIS COUNTY ENGINEERS             29595   #0029595         7076499929010779004/07/201620160407A01/01/202120210101                  Unleaded RegularUUnlockedYYREPORTM-Su18050060 1002135000000DENY
N207746208 HARRIS COUNTY ENGINEERS             29596   #0029596         7076499929010779104/07/201620160407A01/01/20212021010108/22/201620160822Unleaded RegularUUnlockedYYREPORTM-Su18050060 1002135000000DENY
N207746208 HARRIS COUNTY ENGINEERS             29597   #0029597         7076499929010779204/07/201620160407A01/01/20212021010111/17/201620161117Unleaded RegularUUnlockedYYREPORTM-Su18050060 1002135000000DENY
N207746208 HARRIS COUNTY ENGINEERS             29648   #0029648         7076499929010863307/28/201620160728A01/01/20212021010111/22/201620161122Unleaded RegularUUnlockedYYREPORTM-Su2505001002502135000000DENY
N207746208 HARRIS COUNTY ENGINEERS             29649   #0029649         7076499929010863407/28/201620160728A01/01/202120210101                  Unleaded RegularUUnlockedYYREPORTM-Su2505001002502135000000DENY